:020000001628C0
:0E000600831203133B088A003A0882000800A8
:1000140003208A110A128000840ABA0A0319BB0A4F
:08002400F003031D0A28080087
:10002C0083120313A001A101A2010130A30002302D
:10003C00A4000330A5000430A6000530A70006304C
:10004C00A8000730A9000830AA000930AB00103016
:10005C00AC001130AD001230AE001330AF001430D4
:10006C00B0001530B1001630B2001730B3001830A4
:10007C00B4001930B5002030B6002130B700223062
:10008C00B8002330B90083168601870183128701DB
:10009C008316881683128701881AC3281730A0008C
:1000AC000030A10080302106F00080307002031D6A
:1000BC00612800302002031C8B28881E6628C62865
:1000CC002008223E84000008860087150715803022
:1000DC00F000803021067002031D76282008033CB6
:1000EC00031C7A28871407110330FB000830FC002E
:1000FC007730FD00FD0B8028FC0B8028FB0B802843
:10010C000130A002031CA103582887010F30A00066
:10011C000030A10080302106F00080307002031DF9
:10012C00992800302002031CC328881E9E28C6284C
:10013C002008223E840000088600071487168030B1
:10014C00F000803021067002031DAE282008033C0D
:10015C00031CB228071687120330FB000830FC0082
:10016C007730FD00FD0BB828FC0BB828FB0BB8282A
:10017C000130A002031CA1039028881AC62850281D
:10018C008701081BFB28871587140330A00000305B
:10019C00A10080302106F00080307002031DD828A9
:1001AC0000302002031CF2282008223E84000008A4
:1001BC0086000B30FB002630FC005D30FD00FD0B93
:1001CC00E528FC0BE528FB0BE528000000000130BE
:1001DC00A002031CA103CF288701881EFA28081B44
:1001EC00FA2807148716F3282D29870107160714F8
:1001FC000330A0000030A10080302106F0008030D8
:10020C007002031D0B2900302002031C2529200835
:10021C00223E8400000886000B30FB002630FC00D8
:10022C005D30FD00FD0B1829FC0B1829FB0B182960
:10023C00000000000130A002031CA1030229870169
:10024C00881E2D29081F2D298715071526295028AA
:02025C002E2949
:02400E004A2F37
:00000001FF
